:020000040800F2
:1000000000900020C9970008B9890008BF8900083E
:1000100000000000000000000000000000000000E0
:10002000000000000000000000000000C58900087A
:100030000000000000000000CF890008D9890008F6
:100040001998000800000000199800081998000885
:1000500019980008199800081998000819980008BC
:1000600000000000E98900081998000819980008A4
:100070001998000819980008199800080000000055
:1000800019980008E161000855640008016600083D
:10009000199800081998000819980008199800087C
:1000A000199800081998000819980008D9660008DE
:0800B0001998000819980008D6
:1000B80010B5064C2378002B07D1054B002B02D036
:1000C800044800E000BF0123237010BD5403002042
:1000D80000000000705A0108044B10B5002B03D033
:1000E8000349044800E000BF10BDC04600000000FE
:1000F80058030020705A010802780B78002A03D0B0
:10010800013001319A42F7D0D01A70470023C25CFF
:100118000133002AFBD1581E7047000002B4714613
:1001280049084900095C49008E4402BC7047C04632
:1001380003B47146490840004900095E49008E44ED
:1001480003BC7047002243088B4274D303098B42D7
:100158005FD3030A8B4244D3030B8B4228D3030C8F
:100168008B420DD3FF22090212BA030C8B4202D331
:100178001212090265D0030B8B4219D300E0090A59
:10018800C30B8B4201D3CB03C01A5241830B8B4262
:1001980001D38B03C01A5241430B8B4201D34B034B
:1001A800C01A5241030B8B4201D30B03C01A5241B0
:1001B800C30A8B4201D3CB02C01A5241830A8B4235
:1001C80001D38B02C01A5241430A8B4201D34B021E
:1001D800C01A5241030A8B4201D30B02C01A524182
:1001E800CDD2C3098B4201D3CB01C01A5241830936
:1001F8008B4201D38B01C01A524143098B4201D370
:100208004B01C01A524103098B4201D30B01C01A9A
:100218005241C3088B4201D3CB00C01A5241830814
:100228008B4201D38B00C01A524143088B4201D341
:100238004B00C01A5241411A00D2014652411046A1
:100248007047FFE701B5002000F0F0F802BDC04696
:100258000029F7D076E7704703460B437FD4002286
:1002680043088B4274D303098B425FD3030A8B4242
:1002780044D3030B8B4228D3030C8B420DD3FF22AC
:10028800090212BA030C8B4202D31212090265D07A
:10029800030B8B4219D300E0090AC30B8B4201D32D
:1002A800CB03C01A5241830B8B4201D38B03C01A74
:1002B8005241430B8B4201D34B03C01A5241030BEB
:1002C8008B4201D30B03C01A5241C30A8B4201D39C
:1002D800CB02C01A5241830A8B4201D38B02C01A47
:1002E8005241430A8B4201D34B02C01A5241030ABE
:1002F8008B4201D30B02C01A5241CDD2C3098B42A3
:1003080001D3CB01C01A524183098B4201D38B011F
:10031800C01A524143098B4201D34B01C01A5241C2
:1003280003098B4201D30B01C01A5241C3088B4207
:1003380001D3CB00C01A524183088B4201D38B00F2
:10034800C01A524143088B4201D34B00C01A524194
:10035800411A00D201465241104670475DE0CA0F6B
:1003680000D04942031000D34042534000229C462B
:1003780003098B422DD3030A8B4212D3FC22890135
:1003880012BA030A8B420CD3890192118B4208D30B
:10039800890192118B4204D389013AD0921100E06D
:1003A8008909C3098B4201D3CB01C01A5241830981
:1003B8008B4201D38B01C01A524143098B4201D3AE
:1003C8004B01C01A524103098B4201D30B01C01AD9
:1003D8005241C3088B4201D3CB00C01A5241830853
:1003E8008B4201D38B00C01A5241D9D243088B42A9
:1003F80001D34B00C01A5241411A00D2014663464C
:1004080052415B10104601D34042002B00D54942AF
:10041800704763465B1000D3404201B5002000F0EE
:1004280005F802BD0029F8D016E770477047C046A6
:100438008446100062468C461900634600E0C046B8
:100448001FB501F031FC002801D40021C8421FBDAE
:1004580010B501F081FB4042013010BD10B501F02C
:1004680023FC002801DB002010BD012010BDC04680
:1004780010B501F019FC002801DD002010BD012095
:1004880010BDC04610B501F0A9FB002801DC002012
:1004980010BD012010BDC04610B501F09FFB00281B
:1004A80001DA002010BD012010BDC04684460800B6
:1004B8006146FFE71FB500F055F9002801D4002177
:1004C800C8421FBD10B500F0E1F84042013010BD30
:1004D80010B500F047F9002801DB002010BD01200D
:1004E80010BDC04610B500F03DF9002801DD002020
:1004F80010BD012010BDC04610B500F0EDF8002871
:1005080001DC002010BD012010BDC04610B500F070
:10051800E3F8002801DA002010BD012010BDC04614
:10052800F0B5CE46474680B5070099463B0C9C4639
:1005380013041B0C1D000E0061460004140C000C73
:1005480045434B4360436143C0182C0C20188C462C
:10055800834203D980235B029846C44449467943C1
:100568007243030C63442D042D0CC9180004401970
:100578008918C0BCB946B046F0BDC0469E2110B52A
:10058800C905041CFFF7C2FF002803D1201C00F096
:1005980001FC10BD9E21201CC90500F04DFA00F099
:1005A800F9FB80231B069C466044F2E770B50022E5
:1005B8000C4B04000D00FFF76FFF002804D120004A
:1005C800290002F0F1F970BD064B00222000290035
:1005D80001F03AFE02F0E8F980231B069C466044CD
:1005E800F1E7C0460000E04170B505000C000022AC
:1005F800002328002100FFF731FF002808D1280038
:10060800210000F00FF802000B001000190070BD67
:1006180080231B06E118280000F004F8002342425A
:100628008B41F2E770B500220B4B0D00040001F07E
:100638009FFBFFF7BBFF060002F01CFA0022074BE6
:1006480001F096FB02000B002000290001F0FCFDE0
:10065800FFF7ACFF310070BD0000F03D0000F04135
:1006680070B50600080002F0D5F90022064B01F02B
:100678007FFB0D000400300002F0FCF92B00220083
:1006880000F038FC70BDC0460000F04170B5420073
:1006980045024E024C00C30F6D0A0120120E760A65
:1006A800240EC90FFF2A06D0FF2C03D0A24201D185
:1006B800B54206D070BD002DFCD1FF2CFAD1002E1A
:1006C800F8D18B4206D00120002AF3D12800431E1E
:1006D8009841EFE70020EDE770B5420045024E0271
:1006E8004C00C30F6D0A120E760A240EC80FFF2A9B
:1006F8001BD0FF2C0ED0002A1BD1002C01D1002EBC
:100708001CD0002D0CD083421CD00221581E08405A
:10071800013870BD002E22D1002AF4D1002DF2D16B
:100728000028F6D101204042F3E7002D17D1FF2C15
:10073800F0D0002CE7D1002EE5D1E6E70020002D0F
:10074800E7D0E2E7A24205DCEADBB54202D8E7D30C
:100758000020DEE74342584140000138D9E7022033
:100768004042D6E770B5420045024E024C00C30F26
:100778006D0A120E760A240EC80FFF2A0BD0FF2C22
:100788000DD0002A1FD1002C16D1002E14D1002024
:10079800002D10D009E0002D0CD1FF2C13D1002E14
:1007A80008D1002A08D0834212D00221581E0840DE
:1007B800013800E0022070BD002DF4D10028FAD1E4
:1007C80001204042F7E7002CEDD1002EEBD1ECE7F9
:1007D800A24205DCF2DBB54202D8EFD30020EAE7FB
:1007E8004342584140000138E5E7C046F0B54F465E
:1007F8004646D64644024500C0B5640A0F1C2D0E75
:10080800C60F002D00D18DE0FF2D00D192E000230E
:10081800802099469A46E400C00404437F3D78024C
:10082800430A98467B001B0EFF0F002B00D170E097
:10083800FF2B00D186E04246D00080227F3BED1896
:100848000023D204024390469C4631004B4679402F
:10085800681C0F2B1CD8764A9B00D3589F4639003A
:100868004446E2465346022B0FD0032B00D1D7E073
:10087800012B37D100200024C0052043C9070843B5
:10088800E0BCBA46B146A846F0BDFF200024F3E715
:10089800260C2404220C44462404240C4346270036
:1008A8001B0C574374435A435E4312193B0C9B1865
:1008B8009C4203D980225202944666443F041A049B
:1008C8003F0CD2199401671EBC411B0C920E9B1958
:1008D80014439B011C431B0100D49BE001236208C5
:1008E8001C40144302007F32002A64DD630704D0F1
:1008F8000F232340042B00D00434230103D5020026
:100908004C4B80321C40FE2ABFDCA401640AD0B2E2
:10091800B2E74346002B3DD14A4601331A4391467C
:100928009C4692E7002C29D104239946033B0025D5
:100938009A4674E7002C1BD108239946063BFF25ED
:100948009A466CE74346FF35002B0BD102234A46F3
:100958001A4391469C4678E753463100022B00D053
:1009680083E792E703234A461A4391469C466CE77D
:100978000C239946093BFF259A4650E7200002F0D0
:100988006FF97625431F9C4000236D4299469A468D
:100998002D1A44E7404602F063F94246431F9A4045
:1009A80000232D1A90469C46763D4EE78024002170
:1009B800FF20E40360E701239B1A1B2B00DD59E7A6
:1009C80022009E30DA4084401300621E94411C438A
:1009D800630704D00F232340042B00D004346301A1
:1009E8001AD50120002447E78020C003044209D01B
:1009F8004346034206D14446044364023900FF20BB
:100A0800640A39E78020C003044364023100FF20F0
:100A1800640A31E7280065E7A4010020640A2BE78F
:100A28008020C00304436402FF20640A24E7C04610
:100A3800AC5D0108FFFFFFF7F8B5CE464746430215
:100A48005B0A4E02DA009446720A914645004A0053
:100A580080B52D0E1F00C40F120EC90FB609FF2A4C
:100A68005BD0012041408C4239D0A81A00285ADDB9
:100A7800002A6AD0FF2D00D1D9E08022D204164383
:100A88001B2800DCE9E001206346181A430100D462
:100A9800B4E080018709380002F0E2F805388740A1
:100AA800854200DCCCE02D1AB5483840430704D015
:100AB8000F230340042B00D00430430100D4A0E0EE
:100AC8006A1CFE2D00D18DE08001470AD2B2D00504
:100AD8003843E4072043C0BCB946B046F8BDA81A5D
:100AE8008046002845DD002A70D0FF2D00D19EE009
:100AF8008023DB041E4343461B2B00DCD2E001208D
:100B0800604443017AD50135FF2D6BD001239D4AFE
:100B18000340400810401843C8E7002E20D08C42FC
:100B280023D02800FF38002839D0571B002D00D0CB
:100B38009DE06346002B00D1DBE07B1E012F00D136
:100B48000DE1FF2F71D01F0098E0002E00D1A7E023
:100B5800421E012800D1E6E0FF2868D010008FE788
:100B680001204140A14200D07FE7FF20404280465B
:100B7800A8444046002838D0511B002D00D1AEE0D3
:100B8800FF2A00D1DFE080236046DB041843844657
:100B98001B2900DCD9E0012015008019B1E7FE20EF
:100BA8006A1C104271D1002D00D0A6E06346002BCC
:100BB80000D1D9E00022002E00D188E7981B43011C
:100BC80000D4E1E063460C00F01A6FE7002E00D174
:100BD800B7E00200013A012800D19CE0FF2826D0A6
:100BE800904688E7FF22002771E7FE206A1C104222
:100BF80064D0FF2AF6D0150066447008430700D079
:100C080056E7C308FF2D12D05B025F0AEAB25EE71F
:100C18006246002A00D196E0002E08D08022D20336
:100C2800134204D04846104201D10C004B46002B19
:100C3800D8D08027FF031F437F02FF227F0A46E7A1
:100C480020233A00451B38000135EA405D1BA840C7
:100C5800431E98410025104328E720231B1A320021
:100C68009E40C2403000431E984110430CE7FF2AC3
:100C7800DBD080236046DB04184384461B2F56DDF7
:100C880001200C001500301A00E763469F1B7B010A
:100C98003DD4002F00D0FEE600240022002716E7EE
:100CA8000500AFE7320043464146DA4020235B1A8D
:100CB8009E403000431E9841104321E7002DA7D1E4
:100CC8006346002B59D00022002E00D1FFE63000E9
:100CD8006044430192D52A4B013518408EE763469C
:100CE800002B47D04B1E012915D0FF292BD0190006
:100CF8004EE70C004B463D0084E76246002A8BD144
:100D0800002E92D180270024FF22FF03DFE66346EE
:100D18000C00F71ABFE6300060440125430100D4F7
:100D28006CE70225F2E663460125981BAEE6202310
:100D380064466046FC40DF1BB840431E9841204390
:100D48009FE705005EE74B4671E72023654660464E
:100D5800CD40591A8840431E984128431CE76346F2
:100D68000C000125F01A91E6002E95D00C004F4694
:100D78000022ACE64B460D0044E74F460022A6E6AB
:100D8800FFFFFFFBFFFFFF7D002800D036E70024B0
:100D980000279CE641024200C30F490A0020120EB8
:100DA8007E2A03DD9D2A02DD094A981870478020B3
:100DB80000040143952A07DC9620821AD140484254
:100DC800002BF3D10800F1E7963A9140F7E7C046C7
:100DD800FFFFFF7FF8B5002813D0C317C6185E4081
:100DE800C40F300001F03CFF9E2305001B1A962B10
:100DF8000FDC082801DD083DAE407602760AD8B23D
:100E080002E0002400200026C0053043E407204308
:100E1800F8BD992B0CDD05223100121AD1400A00C9
:100E2800010030001B318840411E884102431600F2
:100E3800052D12DC31000D4F3940720709D00F2003
:100E48003040042805D004314A0102D59F23394097
:100E58005B1B89014E0AD8B2D6E76A1F964031005B
:100E6800024F39407207F4D0E9E7C046FFFFFFFBA5
:100E780070B5051E0ED001F0F3FE9E2304001B1A68
:100E8800962B0CDC082801DD083CA5406D026D0A94
:100E9800D8B201E000200025C005284370BD992B79
:100EA80009DD020029001B3291404A1E91410522AA
:100EB800121AD5400D43052C12DC29000C4E314086
:100EC8006A0709D00F202840042805D004314A01B8
:100ED80002D59F2331401B1B89014D0AD8B2DBE79D
:100EE800621F95402900024E31406A07F4D0E9E7B5
:100EF800FFFFFFFBF0B54F464646D6460D000400FF
:100F0800C0B51F0011002803620F400A10437A0081
:100F1800520DE3003C039146640AFA0F4F0F6E002E
:100F280027439246B846760DED0FC900954200D189
:100F380099E04C46341BA446002C00DC7CE04A4671
:100F4800002A00D1B8E0C54A964200D11CE18022AF
:100F58003C0012041443A0466246382A00DD61E1D1
:100F68001F2A00DDCCE164462022121B444694402F
:100F78000F00A14664469140E7404C464A1E914105
:100F88003C43424621436446E240801A5C1AA3422D
:100F98009B415F42C71B3B0200D4D0E07F027F0A1F
:100FA800002F00D1FFE0380001F05AFE0100083997
:100FB800202322005B1A8F40DA408C401743B1424D
:100FC80000DAFFE0891B4B1C1F2B00DDA8E0202264
:100FD8003900D21A200094409140D840621E9441B2
:100FE800DF40002601430C43630709D00F23234049
:100FF800042B05D0231DA342A44164423F191C00C1
:101008003B0200D49EE0954B01369E4200D1B7E0EA
:10101800934AE40817407B0771057F0223433F0B7F
:101028004A0D12053A43ED072A4318001100E0BCA7
:10103800BA46B146A846F0BD002C4BD04C46A41B7E
:10104800A446002E00D023E104001C4300D1AFE1E8
:101058006246541E012A00D115E2804DAC4500D1EC
:10106800C8E1A4461BE14A46B21A9446002A00DCAD
:10107800ACE04A46002A43D0784A964200D1AFE114
:1010880080223C0012041443A0466246382A67DCDA
:101098001F2A00DC5FE14746203AD7406246202AF3
:1010A80005D064464022121B4446944021434A1E00
:1010B80091410C003C4357E03A000A4300D105E156
:1010C8002200013A012C00D182E1644CA4455BD096
:1010D800944641E7634C771C274200D0C4E00400E3
:1010E8001C43002E00D069E1002C00D1BFE144462A
:1010F8000C4300D0D0E14207DB081343C00829E0C5
:101108003A000A4300D170E162466446013A012C74
:1011180000D1E0E0514CA44500D161E19446B4E728
:101128003A001F39CA401100202B03D04022D31A9D
:101138009F403C43631E9C41002700260C436307E5
:1011480000D053E7B446E4087B072343F808434A32
:1011580094451DD06246070352053F0B520D60E7C8
:1011680044460C43621E9441E4189C429B415F42F2
:101178003F183B02E3D5394B01369E4200D0B5E01B
:101188003200002700234CE74207DB081343C0085E
:101198001A00024300D1E1E180273F0307433F03E0
:1011A8002E4A3F0B3DE7200001F05AFD010018319F
:1011B8001F2900DCFCE60838844027000024B142DF
:1011C80000DBFFE6264A761A17400DE7002A2FD0E3
:1011D8004A46921B9446002E00D1ADE01F4A914525
:1011E80000D10FE18022120410436246382A00DD44
:1011F8000FE11F2A00DD80E1644620221E00121B39
:101208006746040093409440FE405A1E9341F840BC
:1012180034431C43804464188C42BF417F424E468D
:101228004744A6E742460A4311004A1E9141ADE6EB
:101238000C4C721C224200D0A1E002001A43002E7E
:1012480000D0FAE0002A00D145E13A000A4300D074
:1012580046E14207DB081343C0087BE7FF070000AD
:10126800FFFF7FFFFE07000047465C1AC21BA34230
:10127800BF417F42B94617004A46BF1A3A0200D515
:101288008DE023003B4300D08AE60020002561E77B
:10129800B44CA14500D1ADE0802424042043644629
:1012A800382C3DDC62461F2C00DDB7E020251E00EF
:1012B8002D1B0400AB40AC40D640D04042465D1EDA
:1012C800AB413443121A904623432CE04207DB0813
:1012D8001343C0083BE75C189C429B4140445B4277
:1012E800C71801263B0200D429E702269E4A630854
:1012F8001740012214401C43FB071C437F0873E678
:101308004446203AD4406246202A05D06746402207
:10131800D21B4746974039434A1E9141214335E63F
:101328000343581E8341CC1AA142BF4143467F4222
:1013380055464E46DF1B2EE602001A4300D1BDE09B
:1013480062466446013A012C00D1E5E0854CA4458B
:1013580058D0944649E764462022121B44469440DC
:101368000F00A14664469140E7404C464A1E914111
:101378003C4342460C436146CA408018F4E6794C27
:10138800A24200D1FDE6591899429B4140445F4270
:10139800C719FC07490816000C437F08CFE6CC1A8A
:1013A800A142BF4143467F42181A5546C71BF7E57D
:1013B800C9087B0755460B43F808C8E6002C00D03F
:1013C80081E043460B4315D1802000250003E3E666
:1013D8005C1AA3429B41C71B5B420126FF1ADAE550
:1013E8004207DB081343C008D2E64207DB08134371
:1013F800C008ACE643464246C9085B0755460B435E
:10140800D008C5E6434642465B07C9080B43D008E7
:10141800BEE603431C00631E9C41FCE60200203C20
:10142800E24014006246202A03D04025AD1AA840A5
:101438000343581E8341234375E7002AE2D03A004C
:101448000A43CDD04207DB0813438022C0081203A9
:10145800104206D0FC08144203D12000CB087A07BA
:1014680013435A0FDB005207DB08134390E6434649
:101478000B4300D109E743464246C9085B07554676
:101488000B43D00866E6CC1AA14289413F1A49426B
:10149800554601267F1A7EE542465C1A871AA34202
:1014A80092415242BF1A3A023DD5CC1AA142894113
:1014B800434649421F1A55467F1A95E57B07C908D6
:1014C8000B43F80843E64446DB080C4330D1420797
:1014D8001343C0085CE67B07C9080B43F80839E6E4
:1014E8005C189C429B4140445B42C7183B0200D4B5
:1014F80025E61D4B01261F4021E60400203AD44072
:101508006246202A04D040226646921B904003433C
:101518005A1E93411C437EE65C188C428941404424
:1015280049424718DDE623003B4300D1ADE606E615
:10153800440723438024C0082403204208D042469D
:10154800D608264204D155463000CB0851070B4334
:101558005A0FDB00DB085207134319E60023014A40
:101568001F005EE5FF070000FFFF7FFFF0B557464D
:101578004E464546DE46E0B5814605000C03480068
:1015880092461F0085B0240B400DCE0F002800D1D5
:1015980056E1D44B984200D172E16B0FE4001C4332
:1015A80080231B0423439846CF4BED009B46002322
:1015B8009946834400933C037B005046240B5B0D03
:1015C800FF0F002B00D11FE1C64A934200D162E110
:1015D800C549420F8C46E4005946144380226344AF
:1015E8001204CB1A14439B46C200002033007B40F0
:1015F8009A464B460F2B27D8BC499B00CB589F4691
:10160800B246009B022B16D0032B00D18EE2012B91
:1016180000D0D9E000230024002552461B052343AF
:10162800D20713432800190005B0F0BCBB46B246E8
:10163800A946A046F0BD00240025AA4BEDE7BA460E
:10164800A04615000090DCE7444500D2C7E100D170
:10165800C2E101235B429C462E0040460025E3443C
:101668002302140E1C431B0C994623041F0C120260
:10167800494600920197FEF7EBFD02007A430B04FE
:10168800310C804619438A4207D901235B429C46A4
:101698000919E0448C4200D807E2881A4946FEF747
:1016A800D7FD09048C4631046646019A090C424369
:1016B800030031438A4204D90919013B8C4200D8FE
:1016C800EDE1881A424612041A4390464146009BAF
:1016D8000E041B0C1F000293009B360C1B04190CF4
:1016E8000B007343120C7E43039151437A431F0C42
:1016F800BC4676186644B14203D9802149028C461B
:101708006244310C8A1831041E04360C8E1990423A
:1017180002D312D1B54210D24346591E009B9C46B3
:1017280065441F009D429B415B421B19C0188442BF
:1017380000D2A0E100D19BE18846AE1BB542AD4185
:10174800801A6D42401B844200D1D5E14946FEF71C
:101758007FFD019A0B044243310C050019438A426C
:1017680000D96CE1881A4946FEF772FD019A3604E1
:1017780042430904360C03000E43B24200D953E138
:101788000398B61A02002D041D43029F2B041B0C5C
:101798005A437B439C46290C4843130C84446344B6
:1017A8007943984203D98020400284466144180C4A
:1017B80012041B04120C41189B188E4200D2FFE041
:1017C80000D1FAE001231D43494A5A44002A00DCAB
:1017D800AAE06B0700D03DE1ED084346DB0106D5E2
:1017E8004246444B1A4090468022D2005A44424B0B
:1017F8009A4200DD1FE743465B071D4343465205F7
:101808005C02240B530D08E75246224300D17BE0CB
:10181800002C00D1FAE0200001F022FA02000B3A75
:101828001D2301009B1A52460839DA408C401443A4
:1018380052468A40314B58449B4683440020D5E6A3
:101848004B462343984644D0002C00D1CEE02000DC
:1018580001F006FA010002000B391D235B1A494604
:101868001000D940083884400B004D462343984661
:1018780085402348831A9B460023994600939AE69D
:101888004B46234398461DD108239946063B00251D
:10189800834600938FE65246224309D102234946E4
:1018A8001943184B89469C4600240220E3449DE6D0
:1018B80003234A461A43134B91469C46524603203B
:1018C800E34493E60C239946093BA04683460093DC
:1018D80071E60423994600239B46013300250093B3
:1018E80069E6C046FF07000001FCFFFFEC5D010848
:1018F800FF030000FFFFFFFEFE070000F3030000E8
:101908000DFCFFFF01F8FFFF4946012319438946F3
:10191800002401206AE6002380249A4600258A4B89
:1019280024037AE601256D4201239B1A382B00DD3A
:1019380070E61F2B00DCBFE01F2149428A1A41468E
:10194800D1400A00202B04D04146804B5B4499408B
:101958000D436B1E9D4107232A431D00002415409B
:10196800134200D1D4E00F2100231140042900D1F3
:10197800CBE0111D9142924152429B180A00190274
:1019880000D4C2E001230024002546E68023414616
:101998001B03194208D01C4206D11C432403BA4633
:1019A8001500694B240B38E68024434624031C4366
:1019B8002403B246644B240B2FE6002B00D103E727
:1019C800A619681EA64200D28DE08E4200D2A3E07E
:1019D80000D1B3E00500F5E6AA4200D939E643464E
:1019E800DE0758086B081E43ED0739E6484601F044
:1019F80037F901000200153120321C2900DC2CE7E0
:101A08004B46083883400025984632E701F028F90C
:101A180003001A00153220301C2A00DC00E7544667
:101A2800083B00229C4005E73619013BB44200D927
:101A3800A6E6B24200D8A3E6831E3619A0E6091925
:101A4800013D8C4200D98DE68A4200D88AE6851E7F
:101A5800091987E60F232B40042B00D1BCE6052388
:101A68005B42AB429B4104355B42ED089844B4E6C7
:101A7800AF4200D960E6824204D800D05CE6AE42AC
:101A880000D859E602235B429C46009BE0449C46F2
:101A980065449D429B415B421B19C0184DE68A4232
:101AA80000D80EE6831E09190BE68A4200D8F4E531
:101AB800831E98460919F0E52549280059448D40A8
:101AC80042468A40691E8D414146D840D94002436A
:101AD8002A430B00510700D151E70F211140042977
:101AE80000D046E74BE705008E4200D06AE6009A30
:101AF800934200D066E667E6164A5A44002A00DC9C
:101B080010E701230025984467E65D075B021C0B7C
:101B1800D2080023154380E50098023D4200824226
:101B2800BF417F423C1936190092DDE780244346C5
:101B380024031C432403044B240B6EE5009A9A42A9
:101B4800EAD30500D3E7C046FF0700003E040000C3
:101B58001E040000FF030000F0B54E464546DE4671
:101B680057469046E0B517001A03120B0500844645
:101B780019480E034C0091465A00DB0F9B46360B62
:101B8800640DC90F520D844219D0824210D0012031
:101B980094420ED14E450CD10120C44509D1594576
:101BA80017D0002C05D130002843431E984100E08F
:101BB8000120F0BCBB46B246A946A046F0BD3300A2
:101BC80001202B43F5D1A242F3D14B463B43F0D140
:101BD800E2E70020EDE7C046FF070000F0B5474602
:101BE800CE460400180016001B031B0B2D4D4A009F
:101BF800994680B543000F03A446B0463F0B520DEB
:101C0800C90F5B0DC00FAA4221D0AB4213D0002AE6
:101C180022D13C43002B02D14D462E4322D0002C2A
:101C280010D0814222D00220013908400138C0BCBE
:101C3800B946B046F0BD4D462E4329D1002AF0D111
:101C48003C43EED10028F2D101204042EFE73D00AD
:101C580025431DD19342EED0002BE2D14C462643BA
:101C6800DFD1E0E70020002CE1D0DCE79A420ADC73
:101C7800E8DB4F45D7D80ED000204F45D7D20029F2
:101C8800E2D00800D3E74342584140000138CEE78C
:101C980002204042CBE7C445C5D80020C445C6D27F
:101CA800EDE7C046FF070000F0B54746CE46040002
:101CB800180016001B031B0B2C4D4A00994680B5D3
:101CC80043000F03A446B0463F0B520DC90F5B0DEE
:101CD800C00FAA420DD0AB4210D0002A27D13C43F6
:101CE800002B11D14D462E430ED10020002C15D0CB
:101CF8000EE03D00254310D1934218D14D462E43A6
:101D08000BD1002A02D13C43002C0BD0814214D0C5
:101D1800022001390840013800E00220C0BCB94661
:101D2800B046F0BD0028F9D101204042F6E7002B6B
:101D3800ECD14C462643E9D1EAE79A4204DD434216
:101D4800584140000138E9E79A42EBDB4F45DFD8BC
:101D580006D000204F45E1D20029E5D00800DDE794
:101D6800C445D5D80020C445D8D2F5E7FF07000000
:101D7800F0B557464E464546DE46E0B598460C0354
:101D88004B000600924687B0240B5B0DCF0F002B4B
:101D980000D15CE1D94A934200D175E1420FE400D9
:101DA8001443802212041443D54AC5009446634460
:101DB8000093002399469B46434642461E03D20F92
:101DC8005B0050469046360B5B0D00D120E1CB4AB4
:101DD800934200D162E1CA49420F8C46009963449C
:101DE800F6008C46164380229C4412046346164330
:101DF800C200002000930099434601318C464946B1
:101E08007B4001930F2926D8BE4B890059588F462D
:101E1800434601933400150083465B46022B16D0D7
:101E2800032B00D103E2012B00D0CDE000220024D7
:101E38000025019B12052243DB071A4328001100E5
:101E480007B0F0BCBB46B246A946A046F0BD002488
:101E58000025AA4AEDE7280C2D042D0C2B00110CA7
:101E68001204120C5343984613002F00434399461B
:101E78004F434F44BB4647460B003F0CBA464343CB
:101E8800DA440293D14504D980277F02B9464B44EE
:101E9800029353461B0C9B4653461F0443461B04A0
:101EA8001B0C98463B0043440493330C3604360C11
:101EB8009846330043439946434643432F009A4686
:101EC800434677435D43380C4D444519A94503D92A
:101ED80080235B029946CA443F04280C3F0C2D041A
:101EE800ED19270C2404240C0300200050437A43E6
:101EF80091463A0053440593030C9A464A4361437A
:101F080049445144AB44894503D980235B0299462F
:101F18004A4400040B0C000C0904091820009946D7
:101F2800434670435C437E435F43030C9846A419C1
:101F380044444A440397A64204D980235B02984646
:101F4800474403972304029E9A46059B5E4498469D
:101F5800AE42AD4176188E4289410004000C5044CF
:101F680040446D424719B846934649428946C3449E
:101F7800D94498428041A845AD419345924189454D
:101F880089416D4240422843240C524249420A4347
:101F9800039B00198018C7184B46DC0D049B75027B
:101FA8001D436A1E95414B46F60D7F0235435A0282
:101FB8003C431543FB0100D41CE101216A080D4094
:101FC8001543E207154364084F496144002900DCC2
:101FD800B0E06B0709D00F222A40042A05D02A1D39
:101FE800AA42AD416D4264191500E30104D5802170
:101FF800464AC90014406144454A914200DD26E73B
:102008006207ED08640249051543240B4A0D10E7E1
:102018005246324300D17FE0002E00D1DCE0300090
:1020280000F01EFE02000B3A1D2301009B1A5246C7
:102038000839DA408E40164352468A40009B35499B
:10204800181A03008C46634400200093D3E6250049
:1020580005434AD0002C00D1B0E0200000F000FE7B
:10206800010002000B391D2310005B1A31003500F6
:1020780008388440D94085400C432648831A009389
:10208800002399469B4697E60500254326D108225A
:1020980000930223002491469B468DE65246009BFE
:1020A800324310D1154900268C46634449460093B3
:1020B80002231943894602209DE65B460197022BBD
:1020C80000D0ADE6C3E60D4A0320944663444A4671
:1020D800009303231A43914652468CE60C22009340
:1020E8000323050091469B4666E604239946002390
:1020F8000093013300249B465EE6C046FF070000BC
:1021080001FCFFFF2C5E0108FF030000FFFFFFFE3C
:10211800FE0700000DFCFFFF4946012319438946CD
:102128000026012067E6002380240025434A019306
:1021380024037EE60120401A382800DD76E61F28B1
:102148005BDD1F2223005242511ACB401900202880
:1021580003D03B4A6244944025436A1E95412A00B5
:102168000A4307210D000024154011425BD00F21BE
:1021780000241140042953D0111D9142924152422A
:10218800A4180A0023024BD501220024002550E69A
:1021980080231B031C4209D01E4207D133431C0372
:1021A80043461500240B254A019342E68022120378
:1021B80014432403214A240B01973AE600F050FD0A
:1021C80001000200153120321C2900DC4BE73400E5
:1021D80008380025844050E700F042FD03001A004B
:1021E800153220301C2A00DC1EE75646083B002228
:1021F8009E4023E7009B9C46E6E612492200614484
:102208002E008D408A40C640691E8D4132432A43C4
:10221800C4405307B6D00F2111400429ACD1B1E70F
:1022280065076402240BD2081543002201E68022C8
:10223800120314432403014A240BFAE5FF070000A4
:102248003E0400001E040000F8B557464E464546B9
:10225800DE46E0B51E0017004A000B03520D5B0A6C
:102268009046420F1A43CD0FCD4C3103C30094461C
:1022780070007A0F490AFF009A46B946400DF60FDA
:102288001143A04200D1B1E001225640B346B54205
:1022980000D188E04246121A002A00DCAEE000288D
:1022A80000D1C1E0BE48804500D151E18020000442
:1022B8000143382A00DD7BE11F2A00DDEEE1202002
:1022C8003E00801A0C00D640D140874062468440C8
:1022D800521A781E8741944634432743DC1BA34295
:1022E8009B4162465B42D31A99464B461B0200D477
:1022F80018E14B465802430A99464B46002B00D139
:1023080037E1484600F0ACFC0100083920232200E0
:1023180048465B1ADA4088408C404346104388455B
:1023280000DD36E1C91A4B1C1F2B00DDEAE0202234
:102338002600D21A01009440DE40D8400023914084
:10234800621E94418146984631430C43630709D085
:102358000F232340042B05D0231DA342A44164422C
:10236800A1441C004B461B0200D4DEE041468C4BC6
:102378000131994200D1E7E04B468A48E40803401E
:10238800180049055B07400223434A0D040B120558
:10239800ED0722432A4318001100F0BCBB46B246A1
:1023A800A946A046F8BD4246121A002A52DD002866
:1023B80000D19CE0A04500D1CAE080200004014380
:1023C800382A00DD49E11F2A00DC97E110000E00E1
:1023D8002038C640202A04D04020821A91400F435A
:1023E800B9464C46621E944134433AE10A003A43E6
:1023F80028D0B346B5422BD06B4A4244002A5DD060
:1024080042464446821A002C00D0F5E065461D433A
:1024180000D19CE1551E012A00D1FBE1604CA2428B
:1024280000D1BDE12A00F0E00800384300D1C3E044
:10243800501E012A00D1A8E1594CA24200D187E0E0
:10244800020036E701225640B346B54200D021E7E4
:10245800554A4244002A00D1B5E042464446821A11
:10246800002C00D138E14E4EB04200D1DEE180268A
:10247800644636043443A446382A00DD96E11F2A10
:1024880000DD24E22026B41AA24664465646B4402B
:10249800A1461C004E46D440264334005646B3405D
:1024A8005E1EB3411C436346D340C918E419BC42BD
:1024B800BF417F42B94680468944D8E040463B4CFC
:1024C8000130204200D0B4E04046002800D044E16A
:1024D8006046184300D190E10800384300D0AAE1D3
:1024E8006146DB0849070B436146CC0827E0080032
:1024F800384361D0501E012A00D139E1A24227D0C9
:1025080002005DE702001F39CA401100202B03D0EA
:102518004022D31A98400443631E9C4100239946E5
:1025280098460C43630700D012E74B464A46E40836
:102538005B072343D408424619498A420ED0240334
:102548005205240B520D22E70A00002400231EE73F
:10255800DB086246520713436246D4081A00224336
:1025680000D1FCE180221203144324030C4A240BFB
:102578000DE7200000F074FB010018311F2900DC72
:10258800C4E608388440434620000024884500DC1F
:10259800C8E6044A5B1A104098468146D6E6C0460B
:1025A800FF070000FFFF7FFF01F8FFFFFE070000A5
:1025B8000F437A1E974191E66146DB0849070B43B2
:1025C8006146CC08B8E74046D34C0130204200D0E1
:1025D800A2E04046002800D001E16046184300D13F
:1025E8005EE10800384300D05FE16146DB08490737
:1025F8000B436146CC08A2E7C84DA84200D1CFE002
:10260800802564462D042C43A446382A56DC1F2A0C
:1026180000DDD1E020251E00AD1A6446AB40AC4079
:10262800D6405D1EAB41344323436446D440091B66
:1026380049E06046DC1B461AA3428041404281467D
:1026480030004E46801B8146000276D44B46234319
:1026580000D052E60024002571E739430C00621EC1
:102668009441E4189C429B415B42634499464B4623
:102678001B0200D456E701239C46A84BE04498452A
:1026880038D04B46A648012203401800630814407E
:102698001C43C3071C434308994657E610000E0025
:1026A8002038C640202A04D04020821A91400F4387
:1026B800B9464F467A1E974137430FE662461A439A
:1026C80013005A1E9341FC1AA742BF417F42CB1BFD
:1026D80099465D46804608E666461E4300D1BEE040
:1026E800561E012A00D109E18C4CA24200D119E101
:1026F8003200C1E642460024002348E620200C00B0
:10270800801A3E0087408440D640781E8741D140D9
:1027180034433C438C44A4E7804A904200D1E9E02A
:10272800DF199F429B4161445B42C918CC077F086F
:102738004B08994680463C43F4E6FC1AA742BF4141
:1027480063467F42C91ACB1B99465D46D5E5FF080B
:102758004B075D463B43CC08EEE662461A4300D081
:1027680082E00B003B431BD1802400252403F9E6BB
:10277800DC199C429B41614489465B4299444B4623
:102788001B0244D401239846CCE6DC1B6246A342D4
:102798009B41511A5B42CB1A994601239846A4E5FE
:1027A800FF084B075D463B43CC08D7E662461A4311
:1027B8001400631E9C4179E615006446203DEC40F8
:1027C800A046202A05D040256446AA1A94402343EF
:1027D8009A465446631E9C414346234373E7624628
:1027E8001A4323D00A003A4300D0A0E06246DB082F
:1027F800520713436246D408B0E60B003B4300D1AE
:1028080028E7FF084B075D463B43CC0897E60223C1
:10281800984636E7FC1AA742BF4163467F42C91A69
:10282800CB1B994601235D4698465EE54B07FF089A
:102838003B43CC0892E6DC1B6046A342B641401AF3
:102848007642801B8146000260D5FC1AA742BF4130
:1028580063467F42C91ACB1B99465D4676E5FF0859
:102868004B073B43CC0867E60A00DB083A4300D134
:102878006FE66246520713436246D4088022120369
:10288800144207D0C808104204D15D460400FB0872
:1028980049070B435A0FDB00DB08520713435DE679
:1028A8004B07FF083B43CC0849E6DC199C429B4197
:1028B800614489465B4299444B461B0200D431E689
:1028C8004A46174B1A400123914698462AE61600B5
:1028D8006446203EF440A046202A05D0402664469F
:1028E800B21A944023439A465446631E9C41434679
:1028F8001C43DBE502000024002348E5DC19BC4248
:10290800BF41614489467F42B94438E74B46234377
:1029180000D19FE606E6C046FE070000FF0700005C
:10292800FFFF7FFFFF084B073B43CC0816E66246D4
:10293800DB08520713436246D4088022120314426C
:1029480007D0C808104204D15D460400FB084907B7
:102958000B435A0FDB005207DB081343FEE5002345
:10296800014A1C0013E5C046FF07000070B50500CA
:102978000C481C0316005B000A034900120B490DA2
:10298800240B5B0D814208D0064A0020934203D1F4
:1029980020003043431E984170BD01202A43FBD1DB
:1029A800F2E7C046FF0700000A0030B5134C530099
:1029B80009030500090B00205B0DD20FA34204DDBB
:1029C8000F48834202DD0F4BD01830BD80204003F2
:1029D80001430D48C01A1F2808DD0C48C31AD94006
:1029E8000B005842002AF0D11800EEE7084CC54009
:1029F800A446634499400B002B43F2E7FE03000012
:102A08001D040000FFFFFF7F3304000013040000D3
:102A1800EDFBFFFF70B5002816D0C317C5185D4041
:102A2800C40F280000F01CF9114A121A0A2816DCF3
:102A380003002E0015339E400B23181AC54052057B
:102A48002D032D0B530D03E0002400230025002641
:102A58001B052B43E40723433000190070BD0B38D6
:102A6800854052052D0300262D0B530DF0E7C04677
:102A78001E04000010B5041E10D000F0F1F80F4B32
:102A88001B1A0A2811DC0B222100121AD14015301A
:102A98000A035B058440120B5B0D01E00023002252
:102AA8001B0513432000190010BD22000B3882407B
:102AB8005B0512030024120B5B0DF1E71E040000F6
:102AC80070B543004602C40FFE201B0E591C750A40
:102AD80008420CD0E022920094466D07360B6344FE
:102AE8001B053343E40723432800190070BD002B5E
:102AF80014D1002D1BD0280000F0B2F80A281CDCE5
:102B08000B232E001B1ADE40030015339D400E4A8E
:102B18003603121A5205360B530DE1E7002D09D082
:102B28008022360B1203094B6D071643D8E70023A2
:102B38000026D5E70026054BD2E703000B3B9D4056
:102B48002E000025E3E7C04689030000FF070000C8
:102B580002004B00F0B55B0D0C033D4E640A400FBC
:102B68005F1CC90F0443D50037420AD039481E18E4
:102B7800FE2E16DDFF200024C0052043C9070843A8
:102B8800F0BD002B06D12C4326D005229201540A11
:102B9800D8B2F1E72543EDD08020C0030443FF20DD
:102BA800EAE7002E1BDD9201531E9A41E4006D0FE7
:102BB80022432A43530748D00F231340042B00D045
:102BC80004328023DB0413403FD0701CFE2ED1D08A
:102BD8009201540AC0B2CFE700200024CCE73200AB
:102BE800173222DB8020000420431E24A41B1F2C44
:102BF8001DDD02225242961B0200F2401600202CD4
:102C080004D0154A94466344984005432A00531E4D
:102C18009A41324300265307CED180241300E4049E
:102C2800012023402242D3D1B0E70023ADE70B4A6D
:102C380094462A00E24014002A0063449A409840CF
:102C4800551EAA4102432243E4E733009EE7C046EB
:102C5800FE07000080FCFFFFA2FCFFFF82FCFFFFD5
:102C68001C2101231B04984201D3000C10391B0AB4
:102C7800984201D3000A08391B09984201D3000978
:102C8800043902A2105C40187047C04604030202CF
:102C980001010101000000000000000090B589B0AA
:102CA80000AF78600C243B19180014231A00002187
:102CB8000EF0B9F87B6818687B689B8801221900B8
:102CC80008F071FD7B689B881A003B191A603B1954
:102CD80011225A607B68DB79012B03D13B19012251
:102CE8009A6003E00C23FB1800229A600C217B18E1
:102CF8000222DA607B681B687A181100180008F055
:102D0800D1FBC046BD4609B090BD90B589B000AFB3
:102D180078600C243B19180014231A0000210EF0C7
:102D280082F87B689B881A003B191A603B190022BD
:102D38005A607B68DB79012B03D13B1901229A6029
:102D480003E00C23FB1800229A607B681B680C22A6
:102D5800BA181100180008F0A5FBC046BD4609B016
:102D680090BD0000B0B58AB000AF7860396010211E
:102D78007B1800221A607B1800225A603B689B79F6
:102D8800002B05D12623FB18FA22D2001A8004E072
:102D98002623FB18FA2292001A8006F0B7FD0200DB
:102DA8003B689B68D21A2623FB181B889A420DD2CF
:102DB8003B681A6910217B181A603B68DA687B182F
:102DC8005A607B687A1803CA03C369E106F09EFD5E
:102DD80002003B689A603B681800FFF75FFF3B689A
:102DE80018683B689B880022190008F0DCFC0F205B
:102DF80006F096FD3B6818683B689B88012219001D
:102E080008F0D1FC3B681800FFF77FFF2423FB186C
:102E180000221A8010E024217B181A887B180132BE
:102E28001A807B181B88A04A934205D97B68102218
:102E3800BA1803CA03C333E13B681A683B689B8826
:102E48001900100008F092FC0300012BE3D02423A2
:102E5800FB1800221A8010E024217B181A887B189E
:102E680001321A807B181B888F4A934205D97B68E8
:102E78001022BA1803CA03C312E13B681A683B68F8
:102E88009B881900100008F071FC0300012BE3D1A6
:102E98002423FB1800221A8010E024217B181A88AA
:102EA8007B1801321A807B181B887F4A934205D908
:102EB8007B681022BA1803CA03C3F1E03B681A689A
:102EC8003B689B881900100008F050FC0300012B98
:102ED800E3D00823FB18754A1168196012791A7132
:102EE8002323FB1800221A7054E02223FB18072220
:102EF8001A7044E00023FB610023BB6102E0BB6958
:102F08000133BB613B681A683B689B881900100055
:102F180008F02CFC0300012BF1D12423FB1800221C
:102F28001A8002E0FB690133FB613B681A683B6861
:102F38009B881900100008F019FC0300012BF1D040
:102F4800FA69BB699A4214D923203B181B780824D4
:102F58003A19D35C5AB22223FB181B7801219940F5
:102F68000B005BB213435AB23B181B78D1B23A1923
:102F7800D15422217B181A787B18013A1A7022231F
:102F8800FB181B78FF2BB5D123217B181A787B18E7
:102F980001321A702323FB181B78042BA5D90824A7
:102FA8003B191A783B195B78D318DAB23B199B782E
:102FB800D318DAB23B19DB78D318DAB23B191B798C
:102FC8009A4260D13B689B79012B46D13B191B780B
:102FD8001B023A19527813431800FDF7FBFE031C35
:102FE8003349181CFDF702FC031C1A1C10257B1919
:102FF8001A603B199B785BB2002B12DB3B199B785C
:103008001B023A19D27813431800FDF7E3FE031C9C
:103018002749181CFDF7EAFB031C1A1C7B195A6088
:103028001BE008217B189B787F221340DAB27B18BB
:103038009A700A007B189B781B02BA18D27813433F
:103048001800FDF7C7FE031C1A49181CFDF7CEFB34
:10305800031C1A1C1023FB185A603B689B79002B31
:1030680011D108243B191B781800FDF701FF021C39
:1030780010257B191A603B199B781800FDF7F8FE9C
:10308800021C7B195A6010217B181A683B681A6168
:103098007B185A683B68DA607B687A1803CA03C3EE
:1030A8007868BD460AB0B0BD10270000885A0108EC
:1030B800CDCCCC3DCDCCCCBD80B586B004AF020024
:1030C800BB1D1A807B1D0A1C1A70BB1D1A88094873
:1030D80001230293012301937B1D00930223A02166
:1030E80008F01CFD052006F01BFCC046BD4602B0DA
:1030F80080BDC0465404002090B589B004AF0200DA
:10310800BB1D1A80BB1D1A880A480123029301239C
:1031180001930F243B1900930223A02108F02CFEF1
:10312800022006F0FDFB3B191B781800BD4605B0D0
:1031380090BDC0465404002080B500AF024B1B6808
:103148001800BD4680BDC0469475FF1F80B500AF0E
:10315800024B1B681800BD4680BDC0469875FF1F0E
:103168000FB490B5C3B000AF8A235B0008215B1889
:10317800DB197B607B68882252005218D2191268CA
:1031880080214900082438190FF0A2FC3B191800C7
:10319800FCF7BCFF03009AB201235B4239190548CA
:1031A8000CF022FAC046BD4643B090BC08BC04B03F
:1031B8001847C0463406002080B586B000AFF860D6
:1031C800B9607A607A68B968154B180007F0C8FCCE
:1031D80003007B617A6913491023FB1818000EF06D
:1031E8003BFD114B00221A7010E00F4B1B781A00A0
:1031F8001023FB189918FB68012218000EF061FDD6
:10320800094B1B780133DAB2074B1A70064B1B784F
:10321800032BEAD9C046C046BD4606B080BDC046AD
:1032280030040020905A0108D107002090B597B0CB
:1032380002AFF860B9607A60BB68FA680A4914247A
:1032480038190EF009FD7B689BB206339AB2074B1A
:103258001B880748391900930300012004F086F8F9
:10326800C046BD4615B090BD985A0108D800002048
:10327800D400002090B585B000AF78600A00FB1C30
:103288001A70FB1C1B781B09DBB21A000F4B9A5CE7
:103298000C217B181A70FB1C1B780F2213400B4A59
:1032A800D25C7B185A700C0079187B6801221800D0
:1032B8000EF007FD3B19591C7B68012218000EF01F
:1032C80000FDC046BD4605B090BDC0463473010838
:1032D80080B584B000AF78600A00BB1C1A80BB1CA4
:1032E8001B881B0A9AB20F217B181A707B181B784F
:1032F8001B09DBB21A00204B9A5C08203B181A7095
:103308007B181B780F2213401B4AD25C3B185A705B
:103318007B18BA1C12881A707B181B781B09DBB241
:103328001A00154B9A5C3B189A707B181B780F2271
:103338001340114AD25C3B18DA70104B00221A7005
:1033480010E00E4B1B781A000823FB1899187B68AD
:10335800012218000EF0B5FC084B1B780133DAB2D5
:10336800064B1A70054B1B78032BEAD9C046C0469A
:10337800BD4604B080BDC04634730108D1070020A3
:10338800F0B595B000AF16009C462F23FA18031C21
:1033980013702E23FA180B1C13702D23FA18331CE4
:1033A80013702C26BA196346137000220023BA64DE
:1033B800FB64012200233A647B640023FB630C2135
:1033C80028200A18D2192F23FB181B7813700A1803
:1033D800D2192E23FB181B7853700A18D2192D23E3
:1033E800FB181B7893700B18DA19BB191B78D3706C
:1033F8000B18DB191800FCF789FE0300BB63BA6BD6
:10340800531EBB63FA63A6E00C2128200B18DA19B7
:10341800FB6BD3181B782F2B29D90B18DA19FB6BE8
:10342800D3181B78392B22D80B18DA19FB6BD31851
:103438001B78303B3B61DB177B613A6C7B6C3869EE
:103448007969FDF76DF802000B0010001900BA6CDD
:10345800FB6C12184B41BA64FB643B6C1A0F7B6C13
:103468001D0115433B6C1C013C647D6470E00C211C
:1034780028200B18DA19FB6BD3181B78402B2FD98F
:103488000B18DA19FB6BD3181B78462B28D80B18A6
:10349800DA19FB6BD3181B78373BBB60DB17FB6073
:1034A8003A6C7B6CB868F968FDF73AF802000B00D3
:1034B80010001900BA6CFB6C12184B41BA64FB641B
:1034C8003B6C1A0F7B6C1B017B627B6A13437B622C
:1034D8003B6C1B013B623A6A7B6A3A647B6437E067
:1034E8000C2128200B18DA19FB6BD3181B78602BDA
:1034F8002ED90B18DA19FB6BD3181B78662B27D833
:103508000B18DA19FB6BD3181B78573B3B60DB179A
:103518007B603A6C7B6C38687968FDF701F80200CB
:103528000B0010001900BA6CFB6C12184B41BA64FE
:10353800FB643B6C1A0F7B6C1B01FB61FB6913433B
:10354800FB613B6C1B01BB61BA69FB693A647B6434
:10355800FB6B013BFB63FB6B002B00DB54E7BB6C95
:103568001800BD4615B0F0BD80B582B000AF3B0075
:10357800084A11001800FFF7F5FB3B005B68181CB0
:10358800FCF7FCFF0300DAB2034B1A70C046BD46D5
:1035980002B080BD100000205407002080B500AFA5
:1035A8000F4B1B7801225340DBB2002B03D10D4B8C
:1035B8001B78362B03D90C4B0C4A1A6402E00A4BD1
:1035C80000221A640A4B1B78002B03D1094B0022F6
:1035D8001A7002E0074B01221A70C046BD4680BD32
:1035E8005C0700205407002000040040E7030000A7
:1035F800380100205E07002080B500AF0C4B1B7817
:10360800292B03D90B4B0C4A5A6302E0094B0022C1
:103618005A630A4B1B78002B03D1094B00221A70FE
:1036280002E0074B01221A70C046BD4680BDC04665
:103638005407002000040040E7030000390100207F
:103648005F07002080B500AF1B4B5A781B4B1A70E0
:103658001B4B1B78002B26D0184B1B787D2B05D8CD
:10366800184B1B8801339AB2164B1A80134B1B78E0
:103678007E2B09D9134B1B88012B05D9114B1B88AD
:10368800013B9AB20F4B1A800C4B1B789F2B05D924
:103698000D4B00229A630B4B00221A80094B1A88A3
:1036A800094B9A6305E0084B00229A63054B0022F8
:1036B8001A80C046BD4680BD4C0700205007002038
:1036C8005D070020560700200004004080B500AFC9
:1036D80080231B0203480022190008F064F8C04642
:1036E800BD4680BD0008005080B500AF80231B0296
:1036F80003480122190008F056F8C046BD4680BDAF
:103708000008005090B583B000AF78600A00BB1C79
:103718001A8001235C42BB1C1A887968034823007D
:103728000AF09EF8C046BD4603B090BDA004002034
:1037380090B583B000AF78600A00BB1C1A800123E3
:103748005C42BB1C1A8879680348230009F030FFE3
:10375800C046BD4603B090BDA004002080B582B02D
:1037680000AFFB1D01211800FFF7CCFFFB1D1B78E4
:103778001800BD4602B080BD80B582B000AF02001F
:10378800FB1D1A70FB1D01211800FFF7D1FFC04671
:10379800BD4602B080BD000080B582B002AFC54B07
:1037A8001B78032B00D1FEE201DD00F0F1FB022BB8
:1037B80000D1D1E100DDEBE3002B03D0012B00D1D8
:1037C80081E0E5E3BC4B1B781800FFF723F90022E2
:1037D800BA4BFEF7CDFA02000B00100019000022C8
:1037E800B64BFDF7C3FE02000B0010001900FFF7EF
:1037F800AFF9021CB24B1A60B14B1B68181CFFF7DB
:103808005FF902000B00AF49AF480EF025FAAF4B45
:103818001A68AF49AF4B18000EF01EFAAE4B1B7872
:103828001A00AE49AE4B18000EF016FA002102201D
:1038380004F046FBAB49AC4B0122180004F0DAFB5C
:103848000021462004F03CFBA649A84B01221800A1
:1038580004F0D0FB012300930A2381220A210020CF
:1038680004F0EEFB1421232004F02AFBA049964B18
:103878000122180004F0BEFB012300932B238122B0
:103888002B21002004F0DCFB3221012004F018FB7E
:103898009449984B0122180004F0ACFB32215020C7
:1038A80004F00EFB8F498B4B0122180004F0A2FB99
:1038B800012300933F2381223F21002004F0C0FB15
:1038C80004F032FA64E38C4B1B781800FFF7A2F877
:1038D80000228A4BFEF74CFA02000B001000190078
:1038E8000022764BFDF742FE02000B001000190083
:1038F800FFF72EF9021C824B1A606F4B1B781800D9
:10390800FFF788F800226D4BFEF732FA02000B0031
:10391800100019000022694BFDF728FE02000B0079
:1039280010001900FFF714F9021C654B1A60754B5B
:103938001B781800FFF76EF8734A744BFEF718FAF5
:1039480002000B0010001900FFF702F9021C704B6F
:103958001A606B4B1B68181CFFF7B2F802000B00CB
:103968006C496D480EF078F96C4B1B781A006C4B5B
:103978009200D358181CFFF7A3F802000B006949FE
:1039880069480EF069F9624B1B68181CFFF798F834
:1039980002000B0065494F480EF05EF9484B1B6862
:1039A800181CFFF78DF802000B00614946480EF01D
:1039B80053F9604B1B781A005F49604B18000EF0F2
:1039C8004BF90021232004F07BFA46495C4B012285
:1039D800180004F00FFB012300930A2381220A2117
:1039E800002004F02DFB0D21052004F069FA3D4963
:1039F800544B0122180004F0FDFA0D21562004F062
:103A08005FFA3849444B0122180004F0F3FA1721F1
:103A1800052004F055FA33494B4B0122180004F0F5
:103A2800E9FA1721562004F04BFA2E493E4B0122A1
:103A3800180004F0DFFA2121052004F041FA294991
:103A4800424B0122180004F0D5FA2121562004F037
:103A580037FA24491F4B0122180004F0CBFA2B2116
:103A6800052004F02DFA1F49394B0122180004F0F3
:103A7800C1FA2B21562004F023FA1A49124B0122CD
:103A8800180004F0B7FA3521052004F019FA154991
:103A9800304B0122180004F0ADFA3521562004F00D
:103AA8000FFA1049254B0122180004F0A3FA04F07C
:103AB8003BF96DE2CA0600205307002000E06F4082
:103AC800F8060020A05A0108E40600205807002044
:103AD800AC5A0108DC06002060070020B45A01082F
:103AE8003C07002000000020B85A0108C800002048
:103AF80008000020C05A0108520700200080394001
:103B0800F406002051070020295C8FC2F528AC3F3D
:103B1800FC060020CC5A0108CC06002050070020E3
:103B280044730108D45A0108D4060020DC5A01085D
:103B3800E45A010854070020EC5A0108EC0600205A
:103B4800F45A0108005B01080C5B0108185B0108C6
:103B5800205B0108285B0108AA4B1B781A00AA49B8
:103B6800AA4B18000EF078F8A64B5B781A00A64905
:103B7800A74B18000EF070F8A24B9B781A00A249C8
:103B8800A44B18000EF068F89E4BDB781A00A24987
:103B9800A24B18000EF060F8A14B1B781A009A4946
:103BA800A04B18000EF058F89D4B5B781A00964908
:103BB8009D4B18000EF050F8994B9B781A009249CB
:103BC8009A4B18000EF048F8954BDB781A0092498A
:103BD800974B18000EF040F8964B1B781A008A494C
:103BE800954B18000EF038F8924B5B781A0086490E
:103BF800924B18000EF030F88E4B9B781A008249D1
:103C08008F4B18000EF028F88A4BDB781A0082498F
:103C18008C4B18000EF020F88B4B1B881A008B4930
:103C28008B4B18000EF018F80021232004F048F9F7
:103C38008849894B0122180004F0DCF9012300931C
:103C48000A2381220A21002004F0FAF90F21022018
:103C580004F036F97F49814B0122180004F0CAF9B3
:103C68000F21162004F02CF97A49684B012218001C
:103C780004F0C0F90F21322004F022F97549644B91
:103C88000122180004F0B6F90F214E2004F018F9AB
:103C98007049604B0122180004F0ACF90F2169202B
:103CA80004F00EF96B495D4B0122180004F0A2F9EB
:103CB8001B21022004F004F96649694B012218000F
:103CC80004F098F91B21162004F0FAF86149554BC5
:103CD8000122180004F08EF91B21322004F0F0F8BC
:103CE8005C49514B0122180004F084F91B214E2035
:103CF80004F0E6F857494D4B0122180004F07AF910
:103D08001B216A2004F0DCF85249494B01221800B3
:103D180004F070F92721022004F0D2F84D49514BE4
:103D28000122180004F066F92721162004F0C8F8CB
:103D38004849414B0122180004F05CF92721322040
:103D480004F0BEF843493D4B0122180004F052F933
:103D580027214E2004F0B4F83E49394B01221800BF
:103D680004F048F927216A2004F0AAF83949354BAC
:103D78000122180004F03EF93321022004F0A0F8D3
:103D88003449394B0122180004F034F93321162044
:103D980004F096F82F492E4B0122180004F02AF956
:103DA80003F0C2FFF4E0314B1B781A001649174B99
:103DB80018000DF051FF2D4B5B781A001249144B77
:103DC80018000DF049FF294B9B781A000E49114B3A
:103DD80018000DF041FF254BDB781A000E490F4BF8
:103DE80018000DF039FF224B1B78002B46D0214BD1
:103DF80000221A70204A1F4B110018000DF02CFFEA
:103E080045E0C046E0000020345B01083400002093
:103E1800380000203C0000203C5B010840000020E6
:103E2800E400002044000020480000204C0000204E
:103E380050000020E8000020540000205800002016
:103E48005C00002060000020EC000020B45A01084B
:103E58002400002000000020445B0108505B01089A
:103E6800545B0108585B01085C5B0108D400002022
:103E7800A407002000070020605B0108464B0022D1
:103E88001A70464A444B110018000DF0E5FE444BE9
:103E98001B881A004349444B18000DF0DDFE002131
:103EA800232004F00DF84149414B0122180004F089
:103EB800A1F8012300930A2381220A21002004F09B
:103EC800BFF80F21012003F0FBFF3849394B0122CD
:103ED800180004F08FF80F21182003F0F1FF334980
:103EE800354B0122180004F085F80F21342003F027
:103EF800E7FF2E49314B0122180004F07BF80F210F
:103F0800502003F0DDFF29492D4B0122180004F051
:103F180071F80F216C2003F0D3FF2449294B0122AB
:103F2800180004F067F81B21012003F0C9FF1F499E
:103F3800254B0122180004F05DF81B21412003F0F5
:103F4800BFFF1A49144B0122180004F053F8272127
:103F5800012003F0B5FF15491C4B0122180004F09D
:103F680049F83321012003F0ABFF1049184B012217
:103F7800180004F03FF833215D2003F0A1FF0B493E
:103F8800094B0122180004F035F803F0CDFEC046B5
:103F9800C046BD4680BDC046000700206C5B0108D6
:103FA800D8000020785B01082C00002000000020C9
:103FB800805B0108505B01083400002038000020B5
:103FC8003C000020400000208C5B010864070020B2
:103FD800945B010890B58BB000AF5F4B1800FFF7FA
:103FE800BFF85E4B1800FFF7BBF85D4A5D4B110048
:103FF800180005F05DFA5C4A5C4B1100180005F0EA
:104008007BFA5B4A5B4B1100180005F0A1FA5A4B8A
:104018001800FFF7A5F81C217B18584A11CA11C3CC
:1040280012781A707A187B181100180005F005FB31
:10403800534B1800FFF794F83B1D180017231A007C
:1040480000210CF0F0FE4F4B1A783B1D1A704D4BB7
:104058005A783B1D5A704B4B9A783B1D9A70494BC6
:10406800DA783B1DDA70474B1A793B1D1A71454BBC
:104078005A793B1D5A71444B1A783B1D9A71424B31
:104088005A783B1DDA71404B9A783B1D1A723E4BA9
:10409800DA783B1D5A723D4B1A783B1D9A723B4B9E
:1040A8005A783B1DDA72394B9A783B1D1A73374B95
:1040B800DA783B1D5A73364B1A783B1D9A73344B8A
:1040C8005A783B1DDA73324B9A783B1D1A74304B81
:1040D800DA783B1D5A74391D90231B0106221800FB
:1040E80004F0FEFE3B1D991DF0231B01042218005D
:1040F80004F0F6FE3B1D0A331900A023DB0004225E
:10410800180004F0EDFE3B1D0E33190080235B0000
:104118000422180004F0E4FE1E4B1B881B0A9BB205
:10412800DAB28523DB001100180004F015FE194BE4
:104138001B88DAB2A523DB001100180004F00CFE7E
:10414800144B1A8801230221012002F05BFFC046AC
:10415800BD460BB090BDC0469C5B0108B05B010832
:10416800F1360008D53600088137000865370008A1
:10417800393700080D370008D45B0108105C0108C6
:10418800F05B0108F8000020E0000020E4000020B7
:10419800E8000020EC000020B0B596B000AF302455
:1041A8003B1900221A6004332422002118000CF065
:1041B8003AFE08257B1900221A60043324220021C4
:1041C80018000CF030FE3B1D00221A60374B1A789D
:1041D8003B191A70364B1A783B1911001800FFF773
:1041E80049F8344B1A783B1911001800FFF742F8C8
:1041F800314B1A783B1911001800FFF73BF82F4B89
:104208001A783B1911001800FFF734F82C4B1A786C
:104218003B1911001800FFF72DF82A4B1B781A00DC
:104228003B1911001800FFF725F8274B1B781A00D7
:104238003B1911001800FFF71DF8244B1B689AB2B0
:104248003B1911001800FFF743F8214B1B689AB27D
:104258003B1911001800FFF73BF81E4B1B689AB278
:104268003B1911001800FFF733F83A197B191100B0
:1042780018000DF01EFD7B191800FBF747FF03001F
:104288001A0079193B1D1800FEF796FF3B19180014
:10429800FBF73CFF03001A00391D3B191800FEF715
:1042A800C5FFC046BD4616B0B0BDC046D20000200E
:1042B8005207002050070020510700205307002014
:1042C800540700205E0700205F07002058070020E1
:1042D8002C01002030010020B0B59EB000AF3C2476
:1042E8003B1900221A6004332A22002118000CF01E
:1042F8009AFD0C23FB1800221A6004332A2200219D
:1043080018000CF090FD0823FB1800221A603B1DD2
:10431800012252421A608A4B7B673B191800FBF74F
:10432800F5FE03001A003B199A18864B1000190075
:1043380002231A000CF06EFD0120FEF7DDFE0300DB
:104348001A003B1D1A700220FEF7D6FE03001A0061
:104358003B1D5A700320FEF7CFFE03001A003B1DD9
:104368009A700420FEF7C8FE03001A003B1DDA709D
:10437800754B00221A7010E0734B1B781A003B1D16
:104388009A5C3C23FB1811001800FEF773FF6E4B74
:104398001B780133DAB26C4B1A706B4B1B78032B0A
:1043A800EAD90520FEF7A8FE03001A003B1D1A7083
:1043B8000620FEF7A1FE03001A003B1D5A700720D5
:1043C800FEF79AFE03001A003B1D9A700820FEF7BC
:1043D80093FE03001A003B1DDA705B4B00221A7033
:1043E80010E0594B1B781A003B1D9A5C3C23FB18C4
:1043F80011001800FEF73EFF534B1B780133DAB269
:10440800514B1A70504B1B78032BEAD90920FEF741
:1044180073FE03001A003B1D1A700A20FEF76CFE9B
:1044280003001A003B1D5A700B20FEF765FE0300BF
:104438001A003B1D9A700C20FEF75EFE03001A005E
:104448003B1DDA70404B00221A7010E03E4B1B787F
:104458001A003B1D9A5C3C23FB1811001800FEF75C
:1044680009FF394B1B780133DAB2374B1A70364BD8
:104478001B78032BEAD90D20FEF73EFE03003B67AD
:104488000F20FEF739FE0300FB663B6F1B02FA6E36
:10449800D3187B677B6F9AB23C243B191100180034
:1044A800FEF716FF1020FEF727FE03003B671120DA
:1044B800FEF722FE0300FB663B6F1B02FA6ED31861
:1044C8007B677B6F9AB23B1911001800FEF700FF5B
:1044D8001220FEF711FE03003B671320FEF70CFEC7
:1044E8000300FB663B6F1B02FA6ED3187B677B6F7A
:1044F8009AB23B1911001800FEF7EAFE3A190C258A
:104508007B19110018000DF0D4FB7B191800FBF77C
:10451800FDFD03001A00791908257B191800FEF71C
:104528004BFE3B191800FBF7F1FD03001A0079193F
:104538003B191800FEF77AFEC046BD461EB0B0BD56
:104548000F2700001C5C0108D1070020F0B5B5B0AA
:1045580000AF84243B1900221A600433382200215A
:1045680018000CF060FC4823FB1800221A60043382
:104578003822002118000CF056FC4423FB180022B6
:104588001A6040257B19012252421A60CB4BC8267B
:10459800BA1913603B191800FBF7B8FD03001A009D
:1045A8003B199A18C64B1000190002231A000CF088
:1045B80031FCC44B1B78002B00D1B0E03B1918002C
:1045C800FBF7A4FD03001A003B199A18BE4B100014
:1045D800190002231A000CF01DFC3D20FEF78CFD8B
:1045E8000300BA191360BB191B68DAB23B19110032
:1045F8001800FEF73FFE1C20FEF77EFD0300C422D4
:10460800B9180B601D20FEF777FD0300C02178184C
:104618000360C422BB181B681B027A181268D318DF
:10462800BA191360BB191B689AB23B19110018001C
:10463800FEF74EFE1820FEF75FFD03001A007B19F7
:104648001A701920FEF758FD03001A007B195A70DA
:104658001A20FEF751FD03001A007B199A701B20DF
:10466800FEF74AFD03001A007B19DA70974B002207
:104678001A7011E0954B1B781A004023FB189A5CBE
:104688008423FB1811001800FEF7F4FD8F4B1B78EC
:104698000133DAB28D4B1A708C4B1B78032BE9D996
:1046A8003B20FEF729FD03001A00894B1A700023EE
:1046B800CC22BA1813603B1D00221A60043338223A
:1046C800002118000CF0AFFB20E0824ACC243B19F3
:1046D8001B68D3181B789BB21800FEF70DFD03006A
:1046E80019003A1D3B191B68D3180A1C1A703A1D89
:1046F8003B191B68D1188423FB18012218000DF000
:10470800E0FA3B191B6801333A191360704B1B78A8
:104718001A00CC23FB181B689342D6DBAAE084243A
:104728003B191800FBF7F2FC03001A003B199A1812
:10473800694B1000190002231A000CF06BFB3D2096
:10474800FEF7DAFC0300C8257A1913607B191B6889
:10475800DAB23B1911001800FEF78CFD1C20FEF799
:10476800CBFC0300C426BA1913601D20FEF7C4FC55
:104778000300C022B9180B60BB191B681B02BA18CA
:104788001268D3187A1913607B191B689AB23B19FF
:1047980011001800FEF79CFD1820FEF7ADFC030081
:1047A8001A0040243B191A701920FEF7A5FC0300D3
:1047B8001A003B195A701A20FEF79EFC03001A00D3
:1047C8003B199A701B20FEF797FC03001A003B194F
:1047D800DA703E4B00221A7011E03C4B1B781A002D
:1047E8004023FB189A5C8423FB1811001800FEF77D
:1047F80041FD364B1B780133DAB2344B1A70334B18
:104808001B78032BE9D91420FEF776FC03001A0065
:1048180040243B191A701520FEF76EFC03001A009D
:104828003B195A701620FEF767FC03001A003B1963
:104838009A701720FEF760FC03001A003B19DA7023
:10484800224B00221A7011E0204B1B781A004023DB
:10485800FB189A5C8423FB1811001800FEF70AFD68
:104868001A4B1B780133DAB2184B1A70174B1B78A6
:10487800032BE9D984243A1948257B19110018001B
:104888000DF017FA7B191800FBF740FC03001A001B
:10489800791944257B191800FEF78EFC3B1918007E
:1048A800FBF734FC03001A0079193B191800FEF7CE
:1048B800BDFCC046BD4635B0F0BDC0460F27000060
:1048C800205C0108A2070020245C0108D107002011
:1048D800A007002000010020285C010890B58BB0DB
:1048E80000AF08243B1900221A6004331A22002161
:1048F80018000CF098FA3B1D00221A600F4A3B1969
:10490800110018000DF0D5F93B191800FBF7FEFB54
:1049180003001A0039193B1D1800FEF74DFC074B20
:104928001800FBF7F3FB03001A00391D034B1800AE
:10493800FEF77CFCC046BD460BB090BD3808002091
:10494800B0B5BEB002AF7D4B01221A70A8257B1905
:1049580000221A6004333822002118000CF063FA90
:104968006C23FB1800221A60043338220021180037
:104978000CF059FA6823FB1800221A6064243B19CA
:10498800012252421A606E4BEC22BA1813606D4B2A
:104998001A787B191A706C4B1B689AB27B19110034
:1049A8001800FEF795FC694B1B689AB27B19110039
:1049B8001800FEF78DFC0120FEF79EFB03001A008D
:1049C8003B191A700220FEF797FB03001A003B19E7
:1049D8005A700320FEF790FB03001A003B199A70E7
:1049E8000420FEF789FB03001A003B19DA70584BC4
:1049F80000221A7011E0564B1B781A006423FB182A
:104A08009A5CA823FB1811001800FEF733FC504BE2
:104A18001B780133DAB24E4B1A704D4B1B78032BBF
:104A2800E9D90520FEF768FB03001A0064243B1946
:104A38001A700620FEF760FB03001A003B195A7033
:104A48000720FEF759FB03001A003B199A7008204B
:104A5800FEF752FB03001A003B19DA703C4B0022A8
:104A68001A7011E03A4B1B781A006423FB189A5C01
:104A7800A823FB1811001800FEF7FCFB344B1B7829
:104A88000133DAB2324B1A70314B1B78032BE9D958
:104A98000D20FEF731FB0300E8243A1913600F20BC
:104AA800FEF72AFB0300E422B9180B603B191B68C8
:104AB8001B02BA181268D318EC22B9180B60BB187D
:104AC8001B689AB2A8243B1911001800FEF700FCD5
:104AD8003A196C257B19110018000DF0EAF87B19BA
:104AE8001800FBF713FB03001A00791968257B19D6
:104AF8001800FEF761FB3B0000221A6004336022B5
:104B0800002118000CF08FF97B193A191149380067
:104B18000DF0A2F83B001800FBF7F8FA03009AB270
:104B28000D4B39000D480090012002F01FFC034B8B
:104B380000221A70C046BD463CB0B0BD0608002031
:104B48000F270000D20000202C0100203001002097
:104B5800D1070020985A0108F00000204C240000DA
:104B680080B582B000AF78601A4A7B6811001800DF
:104B7800FBF7C2FA031E01D1FFF70EFB164A7B684A
:104B880011001800FBF7B8FA031E01D1FFF7A4FBC8
:104B9800124A7B6811001800FBF7AEFA031E01D118
:104BA800FFF7D4FC0E4A7B6811001800FBF7A4FA43
:104BB800031E01D1FFF792FE0A4A7B681100180014
:104BC800FBF79AFA031E01D1FFF7BAFEC046BD46AD
:104BD80002B080BD2C5C0108305C0108345C01081F
:104BE800385C01083C5C010890B58BB002AF786076
:104BF80039603B68023B3B610023FB610023BB61DA
:104C08000823FB18012252421A600E23FB18D34ACC
:104C18001A807B681B784C2B03D0532B00D158E1AA
:104C280017E33B69252B00D01EE30123FB61022318
:104C3800BB61CB4B00221A7020E0FB697A68D3185D
:104C48001978BB697A68D3181B780A00302130209C
:104C5800FEF796FB0100C24B1B781A00C9B2082365
:104C6800FB189954FB690233FB61BB690233BB61D2
:104C7800BB4B1B780133DAB2B94B1A70B84B1B78AF
:104C8800032BDAD908243B191B7819000120FEF7F9
:104C980013FA3B195B7819000220FEF70DFA3B194D
:104CA8009B7819000320FEF707FA3B19DB781900F7
:104CB8000420FEF701FA0923FB610A23BB61A84B14
:104CC80000221A7020E0FB697A68D3181978BB694A
:104CD8007A68D3181B780A0030213020FEF750FB81
:104CE80001009F4B1B781A00C9B20823FB1899547E
:104CF800FB690233FB61BB690233BB61984B1B78CC
:104D08000133DAB2964B1A70954B1B78032BDAD91C
:104D180008243B191B7819000520FEF7CDF93B192B
:104D28005B7819000620FEF7C7F93B199B78190034
:104D38000720FEF7C1F93B19DB7819000820FEF7B8
:104D4800BBF91123FB611223BB61854B00221A704A
:104D580020E0FB697A68D3181978BB697A68D31898
:104D68001B780A0030213020FEF70AFB01007C4B3B
:104D78001B781A00C9B20823FB189954FB6902333F
:104D8800FB61BB690233BB61754B1B780133DAB237
:104D9800734B1A70724B1B78032BDAD908243B1912
:104DA8001B7819000920FEF787F93B195B78190071
:104DB8000A20FEF781F93B199B7819000B20FEF7B2
:104DC8007BF93B19DB7819000C20FEF775F97B6835
:104DD800193318787B681A3319787B681B331A786B
:104DE8007B681C331B78FEF7CBFA02000E243B19B4
:104DF8001A803B191B881B0A9BB2DBB219000D20D5
:104E0800FEF75AF93B191B88DBB219000F20FEF791
:104E180053F97B681D3318787B681E3319787B68D3
:104E28001F331A787B6820331B78FEF7A9FA020033
:104E38003B191A803B191B881B0A9BB2DBB219006D
:104E48001020FEF739F93B191B88DBB21900112035
:104E5800FEF732F97B68213318787B68223319789A
:104E68007B6823331A787B6824331B78FEF788FA2B
:104E780002003B191A803B191B881B0A9BB2DBB244
:104E880019001220FEF718F93B191B88DBB219002C
:104E98001320FEF711F9334B01221021180006F0F8
:104EA80082FC304B01220821180006F07CFCFA2312
:104EB8005B00180004F034FD2A4B00221021180072
:104EC80006F071FC274B01220821180006F06BFC44
:104ED800CDE17B6801331B78442B00D0CCE07B68A4
:104EE80002331A787B6803331B7830213020FEF7B1
:104EF80047FA02000E243B191A803B191B88DBB2C3
:104F080019003D20FEF7D8F87B68043318787B68D1
:104F1800053319787B6806331A787B6807331B7862
:104F2800FEF72EFA02003B191A803B191B881B0A50
:104F38009BB2DBB219001C20FEF7BEF83B191B8898
:104F4800DBB219001D20FEF7B7F80823FB6109231F
:104F5800BB61034B00221A7027E0C0460F270000F0
:104F6800D107002000040050FB697A68D31819782B
:104F7800BB697A68D3181B780A0030213020FEF705
:104F8800FFF90100BB4B1B781A00C9B20823FB18B4
:104F98009954FB690233FB61BB690233BB61B54BB2
:104FA8001B780133DAB2B34B1A70B24B1B78032B60
:104FB800DAD908243B191B7819001820FEF77CF869
:104FC8003B195B7819001920FEF776F83B199B7896
:104FD80019001A20FEF770F83B19DB7819001B201E
:104FE800FEF76AF80023FB6110237B6111E0A24AF7
:104FF800FB69D3181B7898B27B697A68D3181B7839
:105008001900FEF759F8FB690133FB617B6901332D
:105018007B617A693B699A42E9DBFB69DAB2974BB3
:105028001A70964B1B7819003B20FEF745F80121B2
:105038003C20FEF741F8924B01221A70914B002256
:105048001021180006F0AFFB8E4B00220821180033
:1050580006F0A9FBFA235B00180004F061FC894BF9
:1050680000221021180006F09EFB864B0122082121
:10507800180006F098FBF9E07B6801331B78492B90
:1050880000D0F3E07B6802331A787B6803331B781F
:1050980030213020FEF774F902000E243B191A80E3
:1050A8003B191B88DBB219003D20FEF705F87B6829
:1050B800043318787B68053319787B6806331A78C7
:1050C8007B6807331B78FEF75BF902003B191A80EF
:1050D8003B191B881B0A9BB2DBB219001C20FDF789
:1050E800EBFF3B191B88DBB219001D20FDF7E4FF1D
:1050F8000823FB610923BB615E4B00221A7020E084
:10510800FB697A68D3181978BB697A68D3181B7851
:105118000A0030213020FEF733F90100554B1B7887
:105128001A00C9B20823FB189954FB690233FB61C2
:10513800BB690233BB614F4B1B780133DAB24D4B6D
:105148001A704C4B1B78032BDAD908243B191B78AF
:1051580019001820FDF7B0FF3B195B7819001920DA
:10516800FDF7AAFF3B199B7819001A20FDF7A4FF49
:105178003B19DB7819001B20FDF79EFF1023FB610C
:105188001123BB613B4B00221A7020E0FB697A684F
:10519800D3181978BB697A68D3181B780A003021AC
:1051A8003020FEF7EDF80100324B1B781A00C9B227
:1051B8000823FB189954FB690233FB61BB6902336E
:1051C800BB612C4B1B780133DAB22A4B1A70294B7E
:1051D8001B78032BDAD908243B191B7819001420F3
:1051E800FDF76AFF3B195B7819001520FDF764FF8E
:1051F8003B199B7819001620FDF75EFF3B19DB78F9
:1052080019001720FDF758FF00213C20FDF754FF37
:105218001B4B00221A701B4B00221021180006F0AD
:10522800C2FA184B00220821180006F0BCFAFA232B
:105238005B00180004F074FB124B002210211800C8
:1052480006F0B1FA0F4B01220821180006F0ABFA5C
:105258000CE00D4B1B880D4A0D49009313000422E6
:10526800012002F083F802E0C04600E0C046BD46D7
:1052780009B090BDD107002000010020A007002040
:10528800A207002000040050D8000020D40000200D
:10529800405C010890B58FB000AF78603F4B1B7839
:1052A800002B00D076E07B681800FAF72FFF020089
:1052B8003423FB181A703723FB1804221A70322380
:1052C800FB1800221A800C23FB18354A1A60362373
:1052D800FB1800221A7010E036203B181B780133A7
:1052E8007A68D2183B181B7811781422BA18D1544E
:1052F8003B181A783B1801321A703623FB181A78B3
:105308003423FB181B78053B9A42E5DB254A142316
:10531800FB1811001800FAF7EFFE031E3AD13523E7
:10532800FB1800221A701AE03423FB181A78372069
:105338003B181B78D31A1A007B689A1835243B1936
:105348001B7811781022BA18D1543B181A783B18D8
:10535800013A1A703B191A783B1901321A70352331
:10536800FB181B78032BDFD910243B1918783B193D
:1053780059783B199A783B19DB78FEF701F8020057
:1053880032217B181A80084B7A1812881A80034B2E
:1053980001221A70C046BD460FB090BD110800200A
:1053A800C0A8001D485C01084001002080B582B0FB
:1053B80000AF0120FDF7A0FE03001A00744B1A701D
:1053C8000220FDF799FE03001A00714B5A70032062
:1053D800FDF792FE03001A006D4B9A700420FDF74A
:1053E8008BFE03001A006A4BDA700520FDF784FE75
:1053F80003001A00674B1A700620FDF77DFE0300B4
:105408001A00644B5A700720FDF776FE03001A0055
:10541800604B9A700820FDF76FFE03001A005D4B81
:10542800DA700920FDF768FE03001A005A4B1A705B
:105438000A20FDF761FE03001A00574B5A700B2033
:10544800FDF75AFE03001A00534B9A700C20FDF723
:1054580053FE03001A00504BDA701420FDF74CFE7F
:1054680003001A004D4B1A701520FDF745FE030086
:105478001A004A4B5A701620FDF73EFE03001A0028
:10548800464B9A701720FDF737FE03001A00434B6E
:10549800DA701820FDF730FE03001A00404B1A702E
:1054A8001920FDF729FE03001A003D4B5A701A20F7
:1054B800FDF722FE03001A00394B9A701B20FDF7F6
:1054C8001BFE03001A00364BDA700D20FDF714FEA0
:1054D80003007B600F20FDF70FFE03003B607B6835
:1054E8009BB21B029AB23B689BB2D3189AB22D4B5F
:1054F8001A801C20FDF700FE03007B601D20FDF7CD
:10550800FBFD03003B607B689BB21B029AB23B68C1
:105518009BB2D3189AB2244B1A803B20FDF7ECFDBE
:1055280003001A00214B1A701020FDF7E5FD030057
:105538007B601120FDF7E0FD03003B607B681A02E9
:105548003B68D2181A4B1A601220FDF7D5FD0300EC
:105558007B601320FDF7D0FD03003B607B681A02D7
:105568003B68D218134B1A603C20FDF7C5FD0300B9
:105578005A1E9341DAB2104B1A703D20FDF7BCFD5C
:1055880003001A000D4B1A70C046BD4602B080BD1C
:10559800E0000020E8000020E4000020D400002003
:1055A800DC000020EC000020D8000020A00700202C
:1055B8002C01002030010020A20700202901002032
:1055C800B0B500AFFDF7B8FD0400FDF7BFFD05005D
:1055D800E3B21A000B490C4B18000CF03DFB0B49C9
:1055E8000B4B2A0018000CF037FB03001D00084B7A
:1055F800EB18220A074918000CF02EFBC046BD46DE
:10560800B0BDC046585C010818080020685C010855
:1056180038080020705C010880B500AF1F4B0022DD
:105628000821180006F0BFF81C4B012210211800B1
:1056380006F0B9F880231902A023DB05012218001F
:1056480006F0B1F8002001F017FE012001F014FE69
:10565800C82004F065F980231902A023DB05002285
:10566800180006F0A0F801F017FAFEF7B3FC0C4B8F
:105678000121180003F070FB0A4B01221A70074B36
:1056880000220821180006F08EF8044B0122102190
:10569800180006F088F8C046BD4680BD00040050DA
:1056A80008140000A4070020B0B584B000AF3A6029
:1056B800FB1D021C1A703B1D0A1C1A800E23FB18C6
:1056C80000221A800B23FB1800221A700A23FB18E9
:1056D80000221A706B4B00221A700C23FB18002250
:1056E8001A80C2E00C22BB181B88002B07D0BB18FD
:1056F8001B885A1E644B110018000CF013FAFB1D8E
:105708001B789B000133DB00C0229200944663445F
:10571800180003F0CFFA031E02D0322B3BD083E0EF
:10572800FB1D1B78180001F0A7FDFB1D1B785B0112
:10573800564A944663440121180003F00DFB544A6D
:10574800FB1D18780023032101F05CFC03001A00FC
:10575800FB1D1B789A4208D0FB1D1A784D4B11008F
:1057680018000CF0DFF9012387E0C046FB1D1B7809
:105778009B000133DB00C02292009446634418006A
:1057880003F098FA0300322BF0D1FA235B001800DB
:1057980004F0C6F848E03A68FB1D1B7811001800B1
:1057A80000F080F80B217B181A787B1801321A70E8
:1057B80008257C19FB1D1B78180003F06BFC0300FF
:1057C80023807B191B88002B15D07B191A88396810
:1057D800FB1D1B78180000F015F90A217B181A78B0
:1057E8007B1801321A70274B1B78002B03D02A4BE9
:1057F8001B78002B16D00E243B191B88642B07D965
:10580800264B18000CF01AFA3B1900221A800AE0FD
:105818000E217B181A887B1801321A80322004F076
:105828007FF8C5E7C046C0460B243B191B789BB2DE
:105838003A1D12889A4212D83B1919780A257B1901
:105848001A78174B18000CF06DF97A193B19127871
:105858001B789A4201D103230FE004230DE00C21A9
:105868007B181A887B1801321A803A1D0C23FB1802
:1058780012881B889A4200D334E71800BD4604B04A
:10588800B0BDC046D0070020885C0108081400009D
:10589800B80B0000945C010810080020AC5C0108FB
:1058A800C45C0108B0B586B002AF02003960FB1DC8
:1058B8001A704C4B08221A704A4B00225A704A4BF5
:1058C8001B885A1C91B2484A1180180003F0D1F97C
:1058D80003001AB2434B9A80444B1B885A1C91B25E
:1058E800424A1180180003F0C4F903001AB23D4B74
:1058F800DA800E23FB1800221A8011E00E203B18D4
:105908001B885AB23B181B8807210A4051B2354AF6
:10591800D3180A1C1A723B181A883B1801321A80CD
:105928000E23FB181B881F2BE8D92E4B00225A8008
:105938002C4B2821180003F029F90300180003F064
:1059480098F903001AB2274B5A803A682549FB1D7B
:105958001878274B00931300282201F007FD031E37
:1059680004D1244B18000CF069F935E0224B1800DB
:105978000CF0D8F83B681B7819003B6801331B789A
:105988001A003B6802331B781C003B6803331B7802
:105998001A48009323000CF0C5F8124B04229B5EB2
:1059A8009BB2180003F065F903001C000D4B06229A
:1059B8009B5E9BB2180003F05CF903001D00094BC5
:1059C80002229B5E9BB2180003F053F903000C48B7
:1059D8002A0021000CF0A6F800231800BD4604B0E8
:1059E800B0BDC046A80700203401002036010020C1
:1059F800B80B0000EC5C0108145D0108385D010873
:105A0800485D0108F0B5B3B002AF39601100FB1D65
:105A1800021C1A703B1D0A1C1A803626BB19494AFB
:105A28001A80494C3B1D1A8838257919FB1D1878AE
:105A3800BB190093230001F02DFE0200BC23FB18C4
:105A48001A8029007B181B78002B00D074E07B1883
:105A58001A780C203B181A707B185A783B185A7021
:105A68007B18DB789BB21B029AB27B189B789BB29F
:105A7800D3189BB21AB23B185A807B185B799BB239
:105A88001B029AB27B181B799BB2D3189BB21AB22D
:105A98003B189A807B18DB799BB21B029AB27B1861
:105AA8009B799BB2D3189BB21AB23B18DA80BE23FB
:105AB800FB1800221A8013E0BE203B181B8808330D
:105AC8003822BA18D25C3B181B8851B20C22BA187B
